:020000040800F2
:10000000900600203D01000845130008B5120008C5
:1000100000000000000000000000000000000000E0
:10002000000000000000000000000000471300086E
:100030000000000000000000FB000008851300081D
:100040004F010008000000004F0100084F010008A8
:100050004F0100084F0100084F0100084F01000840
:10006000000000004F0100084F0100084F01000888
:100070004F010008051400084F01000800000000AF
:100080004F01000800000000000000004F010008C0
:10009000000000004F0100084F0100084F01000858
:1000A000000000004F01000800000000D51A000801
:1000B0000348854600F002F900480047C91D0008C2
:1000C00090060020084B19680868203080F30988E2
:1000D000022080F31488BFF36F8F3FBCAE4608BC8C
:1000E00004BC62B61847000010000020EFF3108037
:1000F00072B6704780F310887047EFF309800E4B9B
:100100001A6820381060F0C044464D4656465F4697
:10011000F0C008B572B601F0BDFF62B60CBC116844
:1001200008681030F0C8A046A946B246BB4680F326
:1001300009882038F0C8184710000020044880477C
:1001400004480047FEE7FEE7FEE7FEE7FEE7FEE7BE
:1001500003140008B100000830B50B46014600202A
:100160002022012409E00D46D5409D4205D31D46BD
:100170009540491B2546954040191546521E002DB5
:10018000F1DC30BD70B500242546002801DA0124D9
:100190004042002901DA01254942FFF7DDFFAC4268
:1001A00000D04042002C00D0494270BDF0B51FB4D1
:1001B0000646002082B005464024019100901BE0D5
:1001C000019922460F46304600F020F8049A059B1C
:1001D000801A994110D310461946224600F05EF865
:1001E000361A8F410197224601200021009F00F01E
:1001F00055F838184D4100902046641E0028DFDC79
:10020000019B00982946324607B0F0BD10B5202A60
:1002100004DB0846203AD040002110BD0B46D340F5
:10022000D0402024A21A91400843194610BD000076
:100230000549064A08685043054A80180860400886
:100240007047014908607047680000206D4EC64144
:100250003930000003460B439B0703D009E008C96F
:10026000121F08C0042AFAD203E00B780370401C66
:10027000491C521EF9D27047D2B201E00270401CF4
:10028000491EFBD270470022F6E710B513460A4616
:1002900004461946FFF7F0FF204610BD10B5202A8E
:1002A00004DB0146203A9140002010BD91402023FC
:1002B0009C1A0346E3401943904010BD064C0125AB
:1002C000064E05E0E36807CC2B430C3C98471034FE
:1002D000B442F7D3FFF7F0FED0210008F021000868
:1002E00030B5014620314A780023022A04D0042286
:1002F00082630B70012030BD026814680E25AC4388
:100300001460026814686408640014600125046CB9
:100310002A46C06BA24042604D700B70002030BD79
:1003200070B50024014620314A78022A03D0042106
:100330008163012416E0026813680E25AB43136045
:10034000026813685B085B0013600125036C2A4692
:100350009A40C36B5A604D7000220A70416B0029AD
:1003600000D08847204670BD70B5044600F0CCF838
:100370000546601C02D004480078241800F0C4F838
:10038000401BA042FAD370BD00000020F8B5002247
:1003900094E0012797403B407ED00C79A407A40F3E
:1003A000012C01D0022C10D1856854000326A640F0
:1003B000B543CE68A6402E43866044680D79BC43A1
:1003C000ED06ED0F9540254345600C79E443A40705
:1003D00008D0C56854000326A640B5438E68A640E1
:1003E0002E43C6600C79A407A40F022C0CD1D408AC
:1003F000A40027183D6A5407E40E0F26A640B54313
:100400000E69A6402E433E62056854000326A640AE
:10041000B5430E79B607B60FA6402E4306604C686A
:10042000A403A40F49D0284CA56901263543A56132
:10043000A469950834400094244CAD002F19BD6880
:100440009407240F0F26A640B5430926F606B042AE
:1004500001D100260FE01E4EB04201D101260AE074
:100460001C4EB04201D1022605E01B4EB04201D124
:10047000032600E00526A6402E43BE60174D2C68DB
:100480004E689C43F60300D51C432C606C684E6894
:100490009C43B60302D500E00FE01C436C60AC68DF
:1004A0004E689C43F60200D51C43AC60EC684E6875
:1004B0009C43B60200D51C43EC60521C0B681C46E2
:1004C000D44000D065E7F8BD0010024000000140B4
:1004D0000004004800080048000C004800040140E7
:1004E0000069084000D001207047426913460B4064
:1004F0001B0491430B4383617047002A01D0816143
:1005000070478162704700000148806870470000B2
:1005100000000020024881680278891881607047D5
:100520000000002010B50648016810221143016048
:10053000032000F007F800F053F8002010BD000081
:100540000020024030B505461F4887B08269C114BB
:100550000A43826180690840049005A9684600F05A
:10056000EBF80398002815D000F002F94000174975
:10057000FFF7F2FD411E1748154A0260164AC26095
:100580004160002101618160816100F017FB04007E
:1005900003D015E000F0ECF8E9E70E4800F044FB6A
:1005A00004000DD10D2000F033F8042D07D20022F5
:1005B00029460D2000F038F80848056000E00124C5
:1005C000204607B030BD00000010024040420F003E
:1005D000002C014038010020E70300000400002047
:1005E00008B50A488169012211438161816911407E
:1005F0000091C26901040A43C261C0690022084037
:1006000003210090481F00F00FF808BD00100240C1
:10061000002805DBC106C90E012088400149086099
:100620007047000000E100E010B501F081FA10BD54
:10063000F8B50D4604005AD03A480068C007C00F0C
:10064000A8420AD237480168490849002943016095
:100650000068C007C00FA84249D12068324E810708
:100660000CD5400704D57068072109020843706063
:100670007068F0218843A168084370602078C00743
:1006800025D0606801280ED0316802280ED0890775
:1006900000292CDA71688908890001437160FFF72D
:1006A00033FF07460CE031688903F1E78901EFE782
:1006B000FFF72AFFC11B1D48814201D90320F8BD65
:1006C00070680C210840616889008842F0D11548A3
:1006D0000168C907C90FA9420BD901684908490037
:1006E000294301600068C007C00FA84201D0012063
:1006F000F8BD2078400706D57068072109028843B5
:10070000E1680843706000F043F87168084A090620
:10071000090F515CC840074908600320FFF712FF2A
:100720000020F8BD002002400010024088130000A5
:10073000A82100080C00002010B5072202600A4A18
:1007400053689B079B0F43605368F02423408360EA
:10075000526807231B021A40C26004480068C007A1
:10076000C00F086010BD00000010024000200240D1
:100770000448054900684968044A4905490F515C25
:10078000C84070470C00002000100240B82100084B
:1007900010B514A00FC888B06C460FC415A00FC8C0
:1007A0000FC4184A53680C20194601401648042902
:1007B00016D0082914D19902090F6C46645CD16ADD
:1007C00004AA0907090F525CD90305D5002319466D
:1007D000FFF7ECFC214601E020460C4901F082F9CC
:1007E00008B010BD02030405060708090A0B0C0D2A
:1007F0000E0F10100102030405060708090A0B0C6E
:100800000D0E0F100010024000127A0000093D008A
:10081000FEB5040076D02078E44DC00753D0686858
:100820000007800F012807D068680007800F0228A2
:1008300009D16868C00306D52868800343D560687D
:100840000028E7D03FE06068012813D00121890427
:10085000002814D0052818D02A68881082432A60FE
:100860002868884328606068002820D0FFF74CFE85
:10087000064618E02868012109040843F2E72868C1
:100880000122120490432860EAE7286808432860A0
:1008900029680120000401432960E4E7FFF734FEE2
:1008A000801B642875D828688003F7D50BE0FFF714
:1008B0002BFE064604E0FFF727FE801B6428F1D8D4
:1008C00028688003F7D4207801268007002843DABF
:1008D00068680007800F07D068680007800F02284B
:1008E00011D16868C0030ED42868800702D5E0687B
:1008F000012807D12868F82188432169C9000843E5
:10090000286029E04DE1E0680028286815D03043D0
:100910002860FFF7F9FD074604E0FFF7F5FDC01B6F
:100920000228BFD828688007F7D52968F8208143B6
:100930002069C000014329600EE0400840002860A3
:10094000FFF7E2FD074604E0FFF7DEFDC01B0228CB
:10095000A8D828688007F7D42078000722D5E06956
:100960000028686A0ED030436862FFF7CDFD074665
:1009700004E0FFF7C9FDC01B022893D8686A80070E
:10098000F7D50FE0400840006862FFF7BDFD07465D
:1009900005E09DE0FFF7B8FDC01B02288FD8686A0C
:1009A0008007F7D4207804274007002860DA002069
:1009B0000190E869C00008D4E969B8060143E9611B
:1009C000E969014001200091019079480168C90559
:1009D00011D40168821511430160FFF795FD009065
:1009E00005E0FFF791FD0099401A642870D870481F
:1009F0000068C005F5D5A06801280AD0002801D0FC
:100A0000052810D0286A400840002862286AB843A8
:100A100001E0286A30432862A068002812D0FFF75E
:100A200073FD00900AE0286A38432862F1E7FFF777
:100A30006BFD0099411A5F48814249D8286A8007B6
:100A4000F5D50DE0FFF760FD009006E0FFF75CFDD7
:100A50000099411A574881423AD8286A8007F5D44C
:100A60000198002804D0E869012109078843E8615A
:100A70002078C00635D5606901280CD0401D686B10
:100A800023D038436863686B400840006863FFF711
:100A90003BFD064622E0686B38436863686B304371
:100AA0006863FFF731FD064604E0FFF72DFD801B6C
:100AB00002285BD8686B8007F7D5686BF8218843FC
:100AC000A169C900084368630BE0B8436863F4E7B1
:100AD0004CE0FFF719FD801B022847D8686B8007A0
:100AE000F7D4206A00285ED069680907890F0229B7
:100AF00042D001273F060228286805D0B843286065
:100B0000FFF702FD044633E0B8432860FFF7FCFC22
:100B1000064604E0FFF7F8FC801B022826D8286868
:100B20008001F7D4E86AE16A000900010843E8623D
:100B3000616AA06A084369683D2212049143084330
:100B40006860286838432860FFF7DEFC044604E04C
:100B5000FFF7DAFC001B022808D828688001F7D5C7
:100B600021E0FFF7D1FC001B022801D90320FEBDC4
:100B700028688001F5D416E00128F8D06868E96A91
:100B800001221204636A02409A420AD10907E26A0A
:100B9000090F914205D10F2189040840A16A8842BA
:100BA00001D00120FEBD0020FEBD0000001002406B
:100BB00000700040881300007047704770B5040053
:100BC00005D025462035687F002802D006E00120A8
:100BD00070BD00202877204600F014F802206877C6
:100BE000211D206800F01AFC01224034A271AA776E
:100BF000EA7722706270A270E270227162716A7785
:100C0000002070BD08B500680549884207D1054835
:100C1000C26981150A43C261C0690840009008BDDD
:100C20000020004000100240014620314A7F012A86
:100C300001D00120704702224A770168CB68012267
:100C40001343CB6000680849884202D007498842B4
:100C500004D181684907490F062902D00168114370
:100C60000160002070470000002C0140000400409B
:100C7000704770B50446006801690025C9438907BB
:100C8000002915DBC168C943890711D4E91E016138
:100C900001202077206880698007204602D0FFF776
:100CA000E7FF04E000F096F8204600F094F825777E
:100CB00020680169C943490717D4C168C943490776
:100CC00013D40421C9430161022020772068806980
:100CD0008005800F204602D0FFF7CAFF04E000F035
:100CE00079F8204600F077F8257720680169C94334
:100CF000090716D4C168C943090712D40821C9439A
:100D00000161042020772068C0698007204602D056
:100D1000FFF7AEFF04E000F05DF8204600F05BF85E
:100D2000257720680169C943C90617D4C168C9433A
:100D3000C90613D41021C943016108202077206817
:100D4000C0698005800F204602D0FFF791FF04E0C4
:100D500000F040F8204600F03EF825772068016951
:100D6000C943C90708D1C168C943C90704D1891E4D
:100D70000161204600F030F820680169C943090686
:100D800009D4C168C943090605D48021C94301615A
:100D90002046FFF711FF20680169C943490609D4BD
:100DA000C168C943490605D44021C94301612046B1
:100DB00000F01CF820680169C943890609D4C1689C
:100DC000C943890605D42021C94301612046FFF7A4
:100DD000F4FE70BD7047704710B500680249884244
:100DE00001D1FFF797FB10BD002C01407047704701
:100DF00070B5040019D02420A06720680168490854
:100E00004900016020680025056020684560206871
:100E10008560204600F087F980200551A567E567C9
:100E2000256660342575002070BD012070BD7047B7
:100E3000F8B502680446D069116896689C4B05466F
:100E40001D402023002D75D0F7079A4DFF0FBC469B
:100E50000D402F436DD02546C7078035002F06D0A3
:100E6000CF0504D5012717622A683A432A60820712
:100E700008D5F20706D0276802223A622A680427BA
:100E80003A432A60420708D5F20706D026680422B2
:100E900032622A68022632432A6002070AD50A46CD
:100EA0001A406646324305D02668082232622E6810
:100EB00016432E60020508D54A0106D50122266890
:100EC000D20232622A681A432A602A68002A39D07C
:100ED000800606D5880604D5616E002901D020461B
:100EE0008847286821688968490602D42821084271
:100EF0002DD0204600F072FB20688168490622D57B
:100F0000EFF31081012282F310888368402293431B
:100F1000836081F31088206F002814D066494163F4
:100F2000206FFFF7FDF900280CD0206F416B08E01F
:100F300000E012E0850610D58D060ED5616E9DE0AD
:100F400020468847F8BD2046FFF771FFF8BD2046D0
:100F5000FFF76DFF00202860F8BD256E012D7DD1C3
:100F6000C5067BD5CD0679D5102616622068816826
:100F7000254649064035002945DA226F116849683F
:100F80000904090CE8D02F8B8F42E5D96983916958
:100F9000202933D0EFF31081012282F310880268F8
:100FA0003701BA43026081F31088EFF3108101200A
:100FB00080F310882068826852085200826081F3B2
:100FC0001088EFF31081012080F310882068826878
:100FD0004027BA43826081F31088E36700202066CF
:100FE000EFF31081012080F3108820680268B2437B
:100FF000026081F31088206FFFF772F9288B698BEC
:10100000401A81B231E0298B6A8B891A6A8B89B2C6
:10101000002AA1D000299FD0EFF31082012585F38B
:1010200010880568FF272137BD43056082F31088CB
:10103000EFF31082012080F31088206885686D0826
:101040006D00856082F31088E36700202066EFF36F
:1010500010826066012080F3108800E009E02068BB
:101060000368B343036082F310882046FFF7BFFE96
:10107000F8BD050606D50D0604D5A16E002900D0E1
:101080005EE7F8BD4006FCD54806FAD52046EFF3EA
:101090001081012484F3108814684025AC43146047
:1010A00081F3108883670021816600F0FDF8F8BDA8
:1010B0000F08000020010004C915000810B5040045
:1010C00003D0A06F002802D007E0012010BD00214E
:1010D00074200155204600F027F82420A0672068DE
:1010E0000168490849000160204600F04DFB0128D5
:1010F000ECD0606A002802D0204600F0CDF92068CC
:1011000041680122D202914341602068816808222F
:1011100091438160206801680122114301602046EB
:1011200000F020FA10BD704730B51B4887B0426907
:10113000012149040A43426142690A400592426919
:101140000A43426142690A4005928269C9100A4312
:1011500082618069012408400590481100900220B6
:10116000019003200925ED0603900294694604943A
:101170002846FFF70BF9A10200910494694628461E
:10118000FFF704F9012200211B20FFF74DFA1B2075
:10119000FFF73EFA07B030BD0010024070B5C36FD4
:1011A000202B2BD100290BD0002A09D001248368E1
:1011B0002403A34206D10369002B03D1CB0701D03E
:1011C000012070BD034660331C7D012C16D0012424
:1011D0001C750023036603685C6824020BD5EFF3DB
:1011E0001084012585F310881D680126B606354355
:1011F0001D6084F3108800F055FB70BD022070BDA7
:1012000010B506490446C87800F00CFF03490122D6
:10121000C91C2046FFF7C2FF10BD00004E00002091
:1012200070B5836F202B38D100290AD0002A08D04E
:101230008468DD01AC4206D10369002B03D1CB07E2
:1012400001D0012070BD034660331E7D012E24D0E5
:1012500001261E75C164014640310A824A8200217E
:1012600080228166115021228267AC4202D102693C
:10127000002A10D00A4A82661975EFF31081012204
:1012800082F310880068026880231A43026081F3A9
:101290001088002070BD034AEDE7022070BD0000F9
:1012A000A31900084519000801490120087070477A
:1012B0004E000020FEE70000F0B587B0142168461C
:1012C000FEF7E1FF1D484269012149040A434261DA
:1012D00042690A400592426949000A4342614069F5
:1012E00009260840F60605900022E1213046FFF766
:1012F00004F9134F002202213846FFF7FEF8E120DF
:101300000124032500900194694603950294304618
:10131000FFF73CF81E2000900020019069460294DF
:101320003046FFF733F80220009001946946039598
:1013300002943846FFF72AF807B0F0BD00100240CB
:1013400000040048FEE7704700F0F0FD7D20C0007B
:10135000FFF70AF8FF240925F534ED06FFF7D4F866
:101360002146FEF7F9FE002903D101212846FFF7A7
:10137000BCF800F00FFC00F09DFC0120FEF7F4FF2C
:10138000ECE7000010B5FEF7B1FE044600F0AEFE3B
:10139000002803D001200349000748602046FEF7DB
:1013A000A9FE10BD00ED00E030B591B030216846D7
:1013B000FEF769FF00240D94012003900E9402258E
:1013C000102009940490009505200F94C0040A9001
:1013D0000C9408950B946846FFF71AFA002801D080
:1013E00072B6FEE707200C900E9401210D950F9424
:1013F0000CA8FFF71DF9002801D072B6FEE711B066
:1014000030BD704710B50448FFF733FC00F0DCFD39
:1014100000F074FD10BD00003801002070B50268B6
:10142000184C194EA04201D0B04204D11346702589
:101430004A68AB431A43154B154DA04208D0B04241
:1014400006D0144EB04203D0984201D0A84204D135
:1014500003263602B243CE6832438026B2434E6939
:10146000324302608A68C2620A688262A04203D084
:10147000984201D0A84201D109690163012141616B
:1014800070BD0000002C01400004004000440140F9
:10149000004801400020004010B5818CC90707D0EA
:1014A00001684A6801235B049A43836A1A434A60CD
:1014B000818C890707D501684A6801231B049A4378
:1014C000C36A1A434A60818C490707D501684A6894
:1014D00001239B049A43036B1A434A60818C0907DA
:1014E00007D501684A680123DB039A43436B1A431B
:1014F0004A60818CC90607D501688A6801231B03ED
:101500009A43836B1A438A60818C890607D50168E8
:101510008A6801235B039A43C36B1A438A60818CF8
:10152000490612D501684B6801221205046C9343E9
:1015300023434B60016C914207D101684A68032341
:101540005B059A43436C1A434A60818C090607D5B0
:1015500001684A680123DB04806C9A4302434A60B5
:1015600010BD0000F8B50446002580300560FEF788
:10157000CBFF074620680068124E000709D50121FD
:101580003B46002249052046009600F037FA002825
:101590000DD12068006840070BD501213B46002291
:1015A00089052046009600F029FA002801D0032082
:1015B000F8BD2020A067E06725666034257500200F
:1015C000F8BD0000FFFFFF0110B5406A0022014690
:1015D00040314A834A82FFF72AFC10BD10B5EFF371
:1015E0001082012181F3108801680B68FF242134E7
:1015F000A3430B6082F31088EFF31082012181F383
:10160000108801688B685B085B008B6082F3108830
:10161000016E01290AD1EFF3108281F3108801686D
:101620000B681024A3430B6082F310882021C1674C
:1016300000210166416610BD70B5014640318B8BBB
:10164000C46F0268222C04D090690821084390617D
:1016500070BD928C446D1A402280426D921C42658E
:101660004A8B521E4A834A8B002AF1D1EFF3108332
:10167000012282F3108802681468FF252135AC43EB
:10168000146083F31088EFF31083012282F3108833
:101690000268946864086400946083F310882022D0
:1016A000C26700224266036E012B02D0FFF7A8FD3D
:1016B00070BD0266EFF31083012282F31088026886
:1016C00015681024A543156083F310880268D36958
:1016D000DB43DB0600D41462098BFFF788FB70BD87
:1016E00070B5014640318B8BC46F0268222C04D048
:1016F000906908210843906170BD928C1A40436D37
:101700001A70426D521C42654A8B521E4A834A8BA4
:10171000002AF1D1EFF31083012282F310880268CE
:101720001468FF252135AC43146083F31088EFF370
:101730001083012282F310880268946864086400B0
:10174000946083F310882022C26700224266036EF1
:10175000012B02D0FFF754FD70BD0266EFF310833A
:10176000012282F31088026815681024A5431560D1
:1017700083F310880268D369DB43DB0600D414626C
:10178000098BFFF734FB70BD70B5044681680069B2
:10179000E269014360690025104301432068026843
:1017A0003C4B1A400A43026020684168032212033E
:1017B0009143E26811434160216AA06901432068B6
:1017C00082680B231B029A430A4382603248006BF3
:1017D0008007800F06D0012816D0022816D00328D3
:1017E00010D010200122E369D2032C492C4E9342E1
:1017F0002BD100280CD002280DD004280DD00828A9
:101800003FD10EE00220EDE70420EBE70820E9E7F6
:10181000FEF7AEFF03E00A4603E0FEF7B9FF020061
:1018200033D0616850004A088018FEF795FC80B2FA
:1018300001461039B14224D81949491C014000071A
:10184000420F20680A43C2601FE0002806D0022829
:1018500007D0042807D0082813D108E0FEF788FF36
:1018600003E00A4603E0FEF793FF02000DD0616833
:1018700048088018FEF770FC80B201461039B1426A
:1018800001D9012501E02168C86000206066A066DA
:10189000284670BDF369FFFF0010024000127A0075
:1018A000EFFF000070B54165014640310A834A836D
:1018B00000234366012482682403FF25A24204D149
:1018C0000269002A33D11C4A2FE0002A29D08B83D9
:1018D00080210B502221C167EFF31082012181F397
:1018E000108801688D68012635438D6082F3108869
:1018F0008168A14202D1016900291AD00F494166CD
:1019000074210B54EFF31081012282F310880068D8
:101910000268FF2321331A43026081F310880020FC
:1019200070BD0269002A02D07F228A83D0E78D83AE
:10193000CEE70349E3E70000FF010000E1160008DD
:101940003916000810B5816F212910D101464031A8
:101950004A8A002A0CD0C26C03681288D205D20DC4
:101960001A85C26C921CC264488A401E488210BD0F
:10197000EFF31082012181F3108801680B68802445
:10198000A3430B6082F31088EFF31081012282F3EE
:1019900010880068026840231A43026081F31088AF
:1019A00010BD10B5816F21290ED1014640314A8A00
:1019B000002A0AD0C26C036812781A85C26C521CC5
:1019C000C264488A401E488210BDEFF31082012194
:1019D00081F3108801680B688024A3430B6082F3B5
:1019E0001088EFF31081012282F3108800680268EA
:1019F00040231A43026081F3108810BDFFB581B007
:101A000006460F46044660360A9D55E0681C53D0D2
:101A1000FEF77AFD0499401AA84230D8002D2ED046
:101A200020680168490747D5C069C043000543D411
:101A300001202168C0020862EFF31081012080F3C9
:101A4000108820680268FF23A1339A43026081F363
:101A50001088EFF31081012080F3108820688268DD
:101A600052085200826081F310882020A067E0674E
:101A70008034206000203075032005B0F0BDEFF306
:101A80001081012080F3108820680368FF22A132B2
:101A90009343036081F31088EFF31081012080F3FA
:101AA00010882068826852085200826081F3108892
:101AB0002020A067E067DDE72068C16938468843D9
:101AC00005D0002003998842A0D00020D5E701204E
:101AD000F8E7000010B50248FFF7AAF910BD0000B2
:101AE000B4000020F8B5040C8BB2264682B25E43E7
:101AF0000D0C1046370C58433604801900217941EB
:101B000016466E43370C36048019794126466E43DB
:101B10008919F8BD30B47446641E2578641CAB4244
:101B200000D21D46635D5B00E31830BC184700001F
:101B30008307FF22DB0E9A408907090E994000288F
:101B400008DB830809489B001818036893430B437C
:101B5000036070470007000F0838830804489B00A3
:101B60001818C36993430B43C361704700E400E056
:101B700000ED00E002E008C8121F08C1002AFAD1F7
:101B800070477047002001E001C1121F002AFBD1FD
:101B90007047000070B500F0F1F801260025374CC1
:101BA000012820D1FEF7B0FCA0602670A0780028A4
:101BB0000BD0A57000F08CF93220FEF7D5FB1E206B
:101BC00000F06EF93220FEF7CFFBE670FEF730FB37
:101BD000002800DA40420521FEF7D4FA491CC9B2B8
:101BE000022000F03FF9FEF78FFCA168244A411A59
:101BF00060785043814221D9FEF786FCA060A67030
:101C0000207800280BD0257000F062F93220FEF712
:101C1000ABFB142000F044F93220FEF7A5FBFEF7E1
:101C200007FB002800DA4042C10F0918491049009B
:101C3000401A401CC1B2012000F014F9E0780028DD
:101C400018D0FEF761FCE168401AC82812D9FEF7E7
:101C50005BFCE06020798007800F401C2071C10789
:101C6000084808D001224021FEF747FC20790428CB
:101C700000D3E57070BD0022F5E700005800002099
:101C800060EA0000000000480020704710B5084CD2
:101C90002078002801D001206070A078002801D0B1
:101CA00002206070FEF730FCA060002010BD000034
:101CB00058000020F8B52E4F00262E4D51E000F0C0
:101CC00069F9002801D06E7004E06878002801D01E
:101CD000012800D1AE7068460178274AA8781154CF
:101CE000401CA870052000F067F968780300FFF732
:101CF00011FF0805050B131A2D2F2F3768460078A2
:101D00007E282ED102200CE068460078FF2801D101
:101D1000032006E0002004E0684600780628F9D198
:101D2000042068701DE00520687000241248E1005E
:101D3000C2787B5C9A4205D1C9194968002901D053
:101D4000401D8847641C022CF0D30AE00620E8E717
:101D500068460078EF2800D16E70A878142800D368
:101D60006E70684600F0F4F80028A8D1F8BD0000B5
:101D7000C02100084E0000206C02002010B5092090
:101D800000240221C006FEF7ABFB014600200C4AEE
:101D9000002909D0908051884B1C5380052901D31C
:101DA00014781070204610BD5080918805488142FB
:101DB00001D2491C918088B20528F3D10120F0E7B7
:101DC0004800002010270000FEF7ACFBFFF7ECFAFC
:101DD000FFF772FA17491848002412C004608460A3
:101DE0001649046141600838FEF7E8FE002801D07A
:101DF00072B6FEE710481249483001608460C46042
:101E00004B210461C901846141600C21446241613C
:101E1000FEF7EEFF002801D072B6FEE70648483014
:101E2000FFF74CF9002801D072B6FEE70020FFF75B
:101E30008BFA0000002000406C000020FFFF000033
:101E400000380140064841680968002905D041680A
:101E5000C968C9684968C16270470021C943FAE787
:101E6000100000207CB50D46044609A203CA01916A
:101E70000090082269460848FEF7ECF90648082158
:101E80004471857100F0B0F8044A052151707CBDA1
:101E90007EFF060F010101EF8002002058000020A4
:101EA0001CB508A106C904460192009108226946A2
:101EB0000648FEF7CFF905480821847100F094F830
:101EC0001CBD00007EFF0606010001EF800200201D
:101ED0001CB507A003C80191009008226946064876
:101EE000FEF7B8F90821044800F07EF81CBD000098
:101EF0007EFF060E000000EF8002002010B50A49A8
:101F0000087801280ED18888421C8A80022809D3CB
:101F10000020888002200870092000222021C006AD
:101F2000FEF7EBFA10BD00004E00002010B500F0E7
:101F300029F8012204490548FFF730F9002800D0AC
:101F400000BF002010BD000051000020B4000020A0
:101F500010B50B4CA188002910D02288A11D515C1E
:101F6000017020881E21401CFEF7F6F8218072B611
:101F7000A088401EA08062B6012010BD002010BDC8
:101F80004802002002480021018041808180704782
:101F90004802002072B60749C88862B60122D203FF
:101FA000904205D172B60020C88062B60120704709
:101FB000002070474E00002072B60249C88062B609
:101FC000002070474E0000200649C888420407D010
:101FD000401E0004000CC88002D10120C003C8804C
:101FE000704700004E00002070B50C4C064620786B
:101FF0000D46022802D00020C04370BD09200122F6
:102000002021C006FEF779FA72B60020207062B671
:102010002A4631460248FFF703F970BD4E00002002
:10202000B400002010B50A4CA1881E2901D300205D
:1020300010BD07496288891D505460881E21401CCC
:10204000FEF78AF86180A088401CA080012010BDA6
:10205000480200204368826801699A608368426888
:102060005A604A68824201D182684A600022026155
:102070000868401E08600868704742684A609368B4
:102080008B6093685960916008610168491C016028
:102090007047000010B5134B586B002802D0012088
:1020A000186210BD0020186258690F4902E000282C
:1020B00015D0401E142242438A58002AF7D0142219
:1020C000424351184A680C46526808344A60A2429A
:1020D00001D152684A60D1681960586110BD72B66A
:1020E000FEE700001000002080010020F8B52C4F12
:1020F0000026786B002808D0F869401CF861386A1F
:10210000002800D001263046F8BD3D696D1C3D61B8
:102110000ED178680068002801D072B6FEE77868B2
:10212000B9687960B860786A401C7862FFF78AFE07
:10213000F86A85420AD378680068002810D0786869
:10214000C068C468606885420DD2F862386814219E
:10215000C06A4843134908580128D0D90126CEE760
:102160000020C043F1E7201DFFF774FFA06A00289C
:1021700003D020461830FFF76DFFE06A7969884286
:1021800000D978611421484306494018211DFFF702
:1021900074FFE06A3968C96A8842CCD30126CAE76D
:1021A000100000208001002000000000000000005E
:1021B00001020304060708090000000001020304ED
:1021C0003E0000008D1C000841000000891C000832
:1021D000F0210008000000206C000000741B0008C3
:1021E0005C2200086C00002024060000841B00080C
:1021F00001000000040000000000000000127A004E
:1022000000000000000000000000000000000000CE
:1022100000000000000000000000000000000000BE
:1022200000000000000000000000000000000000AE
:10223000000000000000000000000000000002009C
:10224000000000000000000001020000000000008B
:0C2250005827FEFF000000000000000006
:04000005080000B13E
:00000001FF
