:020000040800F2
:10000000E8070020A1010008B1030008A9030008C7
:10001000AD03000887030008E104000800000000A9
:10002000000000000000000000000000B503000810
:100030008B03000800000000B3030008B7030008AA
:10004000BB010008BB010008BB010008BB010008A0
:10005000BB010008BB010008BB010008BB01000890
:1000600000000000BB010008BB010008BB01000844
:10007000BB01000825040008BB01000800000000C7
:10008000BB010008BB01000800000000BB01000824
:10009000BB010008BB010008BB010008BB01000850
:1000A000BB010008BB010008BB0100084D040008AB
:1000B000BB0100080000000000000000000000007C
:1000C000BB01000800000000BB01000800F002F8BE
:1000D00000F03CF80AA090E8000C82448344AAF1A6
:1000E0000107DA4501D100F031F8AFF2090EBAE8A4
:1000F0000F0013F0010F18BFFB1A43F0010318475C
:100100003016000050160000103A24BF78C878C19D
:10011000FAD8520724BF30C830C144BF04680C600D
:10012000704700000023002400250026103A28BF55
:1001300078C1FBD8520728BF30C148BF0B60704759
:100140001FB500F0DAF81FBD10B510BD00F0E1F8E2
:100150001146FFF7F5FF00F0EBFE00F0FFF803B4E7
:10016000FFF7F2FF03BC00F007F900000B49D1F8DC
:1001700000C04A685CF8043B1068184442F8040B5D
:100180008C4528BFA1F1DC0C8A4228BFA1F1DC021A
:10019000C1F800C04A6020F0004070478001002094
:1001A0000948804709480047FEE7FEE7FEE7FEE70B
:1001B000FEE7FEE7FEE7FEE7FEE7FEE70448054947
:1001C000054A064B70470000B9030008CD0000083F
:1001D000E8010020E8070020E8030020E8030020F1
:1001E00053EA020C00F069802DE9F04B4FF0000655
:1001F000002B1FBFB3FA83F503FA05F424FA05F6C2
:100200005E4012BF1643B2FA82F502FA05F4C5F158
:1002100020051EBF22FA05FC44EA0C04203556EAEC
:10022000044C4FEA144418BF641C4FF000084FF010
:100230000009904271EB030C39D3002919BFB1FAC0
:1002400081F701FA07F6B0FA80F700FA07F6C7F16E
:1002500020071EBF20FA07FC46EA0C062037B6FB33
:10026000F4FCA7EB0507103F07F01F0BCBF12006AE
:100270000CFA0BFB2CFA06F644BFB3460026202FDF
:10028000A4BF5E464FF0000B5BEA060C08BF4FF0C0
:10029000010B19EB0B09ABFB027C48EB0608C01BFA
:1002A00006FB02CC0BFB03CC71EB0C01C1E70B4648
:1002B000024641464846BDE8F08B13B54FF00000BA
:1002C0004FF00001AFF30080BDE81C407047000014
:1002D0000B4910B5A1F17C020A4CC2E93712372153
:1002E00006E000EB104342F82130074B00FB0340CF
:1002F0000B1EA1F10101F4DC10BD0120E8E70000B4
:1003000020010020E119D666CD0D0100704770472D
:100310007047754600F02CF8AE4605006946534616
:1003200020F00700854618B020B5FFF747FFBDE86D
:1003300020404FF000064FF000074FF000084FF04C
:10034000000B21F00701AC46ACE8C009ACE8C009DD
:10035000ACE8C009ACE8C0098D46704710B504464A
:10036000AFF300802046BDE81040FFF7F8BE000064
:10037000004870478801002001491820ABBEFEE705
:1003800026000200704700BFFEE770470148006882
:10039000704700000800002002480068401C014926
:1003A000086070470800002000BFFEE700BFFEE7BE
:1003B00070477047704770471748006820F0010089
:1003C000401C1549086000BF13480068C0F3400096
:1003D0000028F9D01048406820F003000E4948601A
:1003E00000BF0D484068C0F381000028F9D10A48D9
:1003F00000680A490840084908600020486041F642
:100400001070C8624FF4801008634FF41F008860BA
:10041000C80303490860704700100240FFFFF2FE66
:1004200008ED00E010B50121074800F0BAFF48B11F
:10043000FFF7B2FF01F03AF800F0C8FF01210248CF
:1004400000F0ACFF10BD0000002C014010B51E48AC
:100450000068C0F3401070B120211B480C3801F037
:10046000DEF840B118480C3801F0CCF8C4B2204690
:1004700001F060F800BF14480068C0F3C01008B372
:10048000802111480C3801F0CAF8D8B10F48028811
:100490000088401C0D4B18800D480068815C0A489C
:1004A0000C3801F0B3F8094800880A4909888842E5
:1004B00008DB0022084904480C3801F0EFF801205D
:1004C0000649087010BD00000C3801401A000020D9
:1004D0001C0000201800002007000C002000002055
:1004E00000BFFEE770B500F0EDFC01282CD1FFF74E
:1004F0004DFF6C49086001206B4908706B4800781B
:1005000068B100206949087000F02CFE322000F02C
:10051000E7FB1E2000F00EFE322000F0E1FB012080
:1005200063490870FFF722FE041E01DB204600E04D
:1005300060420B2190FBF1F201FB1200401CC5B29E
:100540002946022000F0D6FDFFF720FF5549096833
:10055000411A584800784EF66022504381422AD909
:10056000FFF714FF4F4908600120504908704E48BA
:10057000007868B100204C49087000F0F3FD32208B
:1005800000F0AEFB142000F0D5FD322000F0A8FBF7
:10059000FFF7ECFD051E01DB284600E0684204463B
:1005A00000EBD4704010A4EB4000401CC6B23146B2
:1005B000012000F09FFD3E480078B8B3FFF7E6FE4B
:1005C0003D490968401AC8286BD9FFF7DFFE3A4950
:1005D00008603A490878C11700EB91718910A0EBC7
:1005E0008101364A117010460078401C114608708F
:1005F000087800EBD0714910A0EB410131B900221D
:1006000040214FF0904000F0A5FB05E00122402181
:100610004FF0904000F09EFB28480078042840DB13
:10062000002023490870264908703AE0FFE7244873
:10063000007878B9FFF7AAFE22490968401A40F607
:10064000B83188422DD301201D49087000201E4971
:10065000087026E01A480078012822D1FFF796FE9C
:1006600018490968401A40F6B831884219D3FFF793
:100670008DFE144908601448007880F0010012498A
:1006800008700846007830B1012240214FF09040B8
:1006900000F060FB05E0002240214FF0904000F0A8
:1006A00059FB70BD380000203100002032000020CE
:1006B00033000020350000203C00002034000020E2
:1006C0004000002044000020480000200146002097
:1006D0007047000010B504460848007810B10120AA
:1006E000074908700748007810B1022004490870D3
:1006F000FFF74CFE04490860002010BD31000020C7
:1007000035000020320000203800002038B57BE0A2
:1007100000F0B0FE10B100203F4908703E4800785C
:1007200018B13D480078012802D100203B490870EB
:100730009DF80010394802780078401C374B18703B
:1007400037488154052000F0A7FE33480078082878
:1007500055D2DFE800F004050D17213F434400BFE8
:100760009DF800007E2802D102202B4908704AE043
:100770009DF80000FF2801D1032000E00020264959
:10078000087040E09DF80000062801D1042000E038
:1007900000202149087036E005201F490870002418
:1007A00015E01F48C0781F4911F8341088420DD158
:1007B0001C4800EBC400406840B11A4800EBC4007C
:1007C00041681748401D8847054600BF641C022C3D
:1007D000E7D318E006201049087014E000BF9DF828
:1007E0000000EF2802D100200B4908700B48007868
:1007F000142803DB00200849087004E003E000200F
:100800000549087000BF00BF684600F00BFE0028D5
:100810007FF47EAF38BD00002100002022000020C0
:1008200084000020E81600080349496860F30711B6
:10083000014A5160704700000010024003494968B6
:1008400060F30A21014A5160704700000010024025
:100850000349496860F3CD21014A516070470000A7
:1008600000100240012807D10749496D21F03001ED
:100870003031054A516505E00349496D21F03001E9
:10088000014A51657047000000100240052827D238
:10089000DFE800F0030A11181F00134A126861F321
:1008A0000002114B1A601CE00F4A126861F31042FB
:1008B0000D4B1A6015E00C4A126861F318620A4B7E
:1008C0001A600EE0084A126A61F30002064B1A62CF
:1008D00007E0054A526A61F30002034B5A6200E0E6
:1008E00000BF00BF70470000001002402DE9F04F2C
:1008F00085B004460025AA46AB460026A94600203E
:10090000049003900290019000F0C6F900900098C6
:1009100020B1012812D0022875D112E05648406D4E
:10092000C0F3402038B15448006BC0F3406010B1B0
:100930005248206001E05248206067E05048206043
:1009400064E04D484068C0F3004B4B48C06AC00F9C
:1009500030BB49484068C0F3834547484068C0F30E
:10096000417ABAF1000F01D10F2D04D14FEA0A10DC
:10097000401C054400E0AD1CBBF1000F03D1414811
:10098000684320603DE03C484068C0F3404018B1F7
:100990003C486843206034E039486843206030E0D8
:1009A0003548C06AC0F3031003903348C06AC0F3EF
:1009B000082002903048C06A00F007000190BBF1A7
:1009C000000F02D12F48049009E02B484068C0F383
:1009D000404010B12B48049001E0294804900121C7
:1009E000019801FA00F0039900FB01FC02990498B8
:1009F000A0FB01700146624600233846FFF7F0FB7A
:100A0000206003E0FFE71E48206000BF00BF1A48D7
:100A10004068C0F303161C4810F80690206820FABE
:100A200009F0606014484068C0F30226174810F8C7
:100A30000690606820FA09F0E0600F484068C0F353
:100A4000C226134810F80690606820FA09F0A060EA
:100A500009484068C0F3007607484068C0F3813019
:100A600040EA86060B4810F80690A068B0FBF9F043
:100A7000206105B0BDE8F08F00100240006CDC0280
:100A800000127A0000093D00F81600080817000857
:100A9000101700081817000810B501460020094B70
:100AA00003EB1142126801F01F040123A3401A4016
:100AB00001F01F040123A3409A4200D000E001206E
:100AC00010BD00000010024010B501290DD10E4BE1
:100AD00003EB1042126800F01F040123A3401A43E5
:100AE000094C04EB10431A600CE0074B03EB104277
:100AF000126800F01F040123A3409A43024C04EB48
:100B000010431A6010BD00000010024030B50246CC
:100B10000020002372B9354C646824F48034334DCE
:100B20006C6033482C46246B24F0007404F100748C
:100B30002C6319E02D4C646824F4803404F580346F
:100B40002A4D6C60012A06D12A482C46646824F498
:100B500000346C6008E02648244C646824F40034B7
:100B600004F50034214D6C60234CA04204D9234C81
:100B7000A04201D2002326E0214CA04204D9214CFE
:100B8000A04201D201231EE01F4CA04204D91F4CF9
:100B9000A04201D2022316E01C4CA04204D91C4CF6
:100BA000A04201D203230EE01A4CA04204D91A4CF1
:100BB000A04201D2042306E0174CA04203D9174CEF
:100BC000A04200D20523094C646861F39544074DA7
:100BD0006C600D09054C646865F35E74034D6C60D0
:100BE0002C46E46A63F31A64EC6230BD00100240E4
:100BF00000093D0000127A0060823B00404B4C002F
:100C000080584F00105E5F0094357700101B7F0006
:100C100020BCBE00286BEE0030D73D01D8E9DC01D6
:100C20001648006820F00100401C1449086000BF0D
:100C300012480068C0F340000028F9D00F4840680F
:100C400020F003000D49486000BF0C484068C0F325
:100C500081000028F9D1094800680949084007497E
:100C600008600020486041F61070C8624FF48010A0
:100C700008634FF41F0088607047000000100240B6
:100C8000FFFFF2FE0349496860F30101014A516028
:100C9000704700000010024002484068C0F3810025
:100CA000704700000010024010B5042000F050FB17
:100CB000074800680749B0FBF1F00749086008469B
:100CC00000684FF47A7148430449086010BD000081
:100CD0002C00002040420F000C00002010000020DB
:100CE000002131E032280ADD194A126832235A43C2
:100CF0004FF0E0235A61A0F1320290B206E0144AAC
:100D0000126842434FF0E0235A61002000224FF066
:100D1000E0239A611A46126942F001021A6100BF8B
:100D20004FF0E022116901F001021AB101F48032A2
:100D3000002AF5D04FF0E022126922F001024FF0B4
:100D4000E0231A6100229A610028CBD1704700008D
:100D5000100000200AB1816100E08162704700004C
:100D60001CB501211D48FFF7AFFE01211B48401CA7
:100D7000FFF7AAFE684600F033F801208DF807005F
:100D800000208DF8040001208DF80600E12000907D
:100D900001208DF8050069464FF0904000F02AF8D8
:100DA0000220009069464FF0904000F023F868461A
:100DB00000F016F801208DF8070000208DF80400DF
:100DC0008DF806001E20009001208DF80500694670
:100DD0004FF0904000F00EF81CBD00001100140010
:100DE0004FF6FF7101600021817101714171012194
:100DF000C171704770B50A4600211488A3B233E070
:100E000003F001046CB304684E000325B540AC4305
:100E1000046094794D00AC4005682C43046044683C
:100E200001258D40AC434460446815798D402C43C6
:100E3000446084684E000325B540AC438460D47997
:100E40004D00AC4085682C438460C4684E00032587
:100E5000B540AC43C46054794D00AC40C5682C43E8
:100E6000C4605B104C1CA1B2002BC9DC70BD0246F3
:100E7000002013690B408B4200D000E00120704736
:100E8000F0B5002300244D07ED0E02FA05F3CD1056
:100E90005DB1456A4E07F70E0F26BE40B543456269
:100EA000456A45EA030444620AE0056A4E07F70E04
:100EB0000F26BE40B5430562056A45EA0304046295
:100EC000F0BD000010B5002402214FF09040FFF764
:100ED000CEFFA8B90020134908801348008842F2C9
:100EE0001071884204DA10480088401C0E490880BE
:100EF0000D480088052813D101200C4908700FE027
:100F0000002009490880074801880088401C054ADC
:100F10001080052904DB0548047800200349087087
:100F2000204610BD280000202A00002026000020B6
:100F300000F02EF9032000F0C9F82D48FFF7D6FC89
:100F400001212C48FFF7C0FD2948406842F210718A
:100F5000B0FBF1F0441E22460921274800F00CFAAC
:100F60000021254800F010FA01221146224800F025
:100F700021FA002211460D2000F044F801211E48FC
:100F800000F007FAFFF790FEFFF7EAFE00F0F0FA34
:100F900000F03AFA4FF47A70FFF7A2FE26E0FFF76E
:100FA000F5F916490968401AB0F5FA7F17D9FFF725
:100FB000EDF9124908601248007880F001001049EC
:100FC000087030B1012211464FF09040FFF7C2FE89
:100FD00005E0002201214FF09040FFF7BBFEFFF734
:100FE00081FAFFF793FB0120FFF77AFED7E70000B5
:100FF0004C0000200B001800002C014004000020D1
:10100000000000202DE9F0470B4614464FF0000C7D
:1010100000BF2C4A1268C2F302211D4626460A462A
:10102000C2F10709B9F1040F02D94FF0040901E038
:10103000C2F10709C84602F10409B9F1070F02D24B
:101040004FF0000901E0A2F103094F464FF00109FA
:1010500009FA08F9A9F1010909EA050909FA07F9E4
:101060004FF0010A0AFA07FAAAF1010A0AEA060A87
:1010700049EA0A09CC4601466246002904DB150705
:101080002E0E114D6E5407E015072F0E0D4D0C3529
:1010900001F00F06361FAF5500BF014600290DDBDA
:1010A00000BF00BF01F01F050122AA404D09AD009D
:1010B00005F1E025C5F8002100BF00BF00BFBDE875
:1010C000F08700000CED00E000E400E000BF00F05D
:1010D0000702064B19684FF6FF031940044B0B43F8
:1010E00043EA0221014B196000BF70470CED00E09C
:1010F0000000FA057CB504460D460AA003C8CDE9F8
:1011000000010A48009901600199416044718571AC
:10111000082100F0DFF90646052005490870304631
:101120007CBD00007EFF060F010101EF980000204A
:10113000350000207CB5044607A003C8CDE90001B6
:10114000074800990160019941608471082100F00D
:10115000C1F9054628467CBD7EFF0606010001EF69
:10116000980000201CB507A103C9CDE9000107487C
:101170000099016001994160082100F0ABF9044633
:1011800020461CBD7EFF060E000000EF98000020E8
:1011900010B5FFF745FD40F25310174908600121D3
:1011A0000020FFF773FB0D210020FFF7AFFC0121AA
:1011B0000220FFF76BFB00BF1920FFF76DFC012831
:1011C000FAD10020FFF730FB0020FFF741FB0020A1
:1011D000FFF734FB0120FFF745FB0220FFF752FD2C
:1011E00000BFFFF759FD0228FBD10020FFF73AFBB3
:1011F00000F004F810BD0000002002402DE9FF5F60
:10120000002400250026A146A246A3460020039004
:1012100002900190FFF740FD0090009820B1012856
:1012200014D0022874D115E04348406DC0F340202B
:1012300040B14148006BC0F3406018B13F4840499D
:10124000086002E03F483E49086065E03D483C498F
:10125000086061E038484068C0F300463648C06A1C
:10126000C00F20BB34484068C0F383443248406814
:10127000C0F341750DB90F2C03D12801401C044463
:1012800000E0A41C26B9304860432D4908603DE0C9
:1012900029484068C0F3404020B12B4860432849AA
:1012A000086033E027486043254908602EE0224863
:1012B000C06AC0F3031003901F48C06AC0F308203F
:1012C00002901D48C06A00F00700019016B9DFF8CF
:1012D00078B009E018484068C0F3404010B1DFF82A
:1012E00068B001E0DFF85CB00121019801FA00F07C
:1012F000039900FB01FC0298ABFB007001466246BB
:1013000000233846FEF76CFF0D49086004E0FFE754
:101310000C480B49086000BF00BF07484068C0F395
:1013200003190A4810F809A00548006820FA0AF0D5
:1013300003490860BDE8FF9F00100240006CDC021A
:101340002C00002000127A0000093D002017000840
:10135000042808D14FF0E021096941F004014FF061
:10136000E022116107E04FF0E021096921F004015A
:101370004FF0E02211617047C1628262436923F03D
:1013800001035B1C43617047026861F3061202604F
:101390007047026861F3000202607047CA4302614D
:1013A00070470246002013690B400BB1012000E09A
:1013B00000207047012A03D1C3680B43C36003E0D8
:1013C00012B9C3688B43C3607047000010B50C4866
:1013D0000078012813D10B4801880088401C094A75
:1013E000108002290BDB00201146088002200449EE
:1013F0000870002220214FF09040FFF7ABFC10BD99
:10140000200000202400002010B500F02BF801225D
:101410000249034800F042F9002010BD05000C000D
:101420000038014001460E48808808B90020704706
:101430000B480288801D805C087009480088401CA9
:101440001E2290FBF2F302FB1300054A108072B6D5
:1014500003488088401E024A908062B60120E6E779
:101460006000002000200249088048808880704782
:101470006000002072B60748018862B6B1F5004FDF
:1014800006D172B60020034A108062B60120704770
:101490000020FCE714000020014672B602480180DB
:1014A00062B6002070470000140000200848008841
:1014B00020F4004050B106480088401E04490880CE
:1014C0000846008810B94FF40040088070470000BB
:1014D0001400002070B504460D461048007802281C
:1014E00002D04FF0FF3070BD012220214FF090401C
:1014F000FFF730FC72B600200849087008480580E4
:101500000848046000200849088062B601220749A3
:10151000074800F0C3F80020E5E7000020000020A5
:10152000180000201C0000201A00002007000C00FA
:101530000038014001460D4880881E2801DB00204C
:1015400070470A484288801D8154801F4088401C93
:101550001E2290FBF2F302FB1300044A5080104657
:101560008088401C90800120EAE700006000002095
:101570001CB501212048FFF7A7FA01211F48FFF7FA
:10158000A3FA6846FFF72CFC01208DF80700002025
:101590008DF8040002208DF806004FF4C060009022
:1015A00000208DF8050069464FF09040FFF722FCBF
:1015B00001220921C806FFF763FC01220A214FF02E
:1015C0009040FFF75DFC002211461B20FFF71AFD3B
:1015D00000231A464FF41651094800F029F801215A
:1015E000074800F07BF80121054800F072F801215E
:1015F000034800F00FF81CBD0E0018001100140085
:10160000003801400146486880B27047C1F30802C3
:1016100042607047C26861F34D32C2607047024653
:101620001068084008B1012070470020FCE7000066
:101630002DE9F04385B004460F469046994668462A
:10164000FFF754F91448844201D1029E00E0039E42
:1016500006EB86004000B0FBF7F50A20B5FBF0F181
:1016600000FB1150052803D20A20B5FBF0F503E07A
:101670000A20B5FBF0F0451CA06865F30F00A060E0
:10168000E06868F30C30E060206969F30D30206198
:1016900005B0BDE8F08300000038014030B5012AF4
:1016A0000BD100EB11431B6801F01F050124AC4076
:1016B000234300EB114423600AE000EB11431B6855
:1016C00001F01F050124AC40A34300EB114423604B
:1016D00030BDC26861F38202C2607047C26861F3C4
:1016E000C302C260704700003E000000D50600083B
:1016F00041000000CD0600080000000000000000CE
:1017000001020304060708090000000001020304A7
:10171000000000000102030402040608020C081085
:101720000000000000000000010203040607080991
:1017300050170008000000204C00000008010008BD
:101740009C1700084C0000209C07000024010008A2
:101750000000000000000000000000000000000089
:101760000000000000000000000000000000000079
:1017700002000000000000000000000000127A00DB
:1017800000010000000200005827FEFF00000000DA
:0C1790000000000000000000000000004D
:04000005080000CD22
:00000001FF
